{
  "contractName": "CourseRegistration",
  "abi": [
    {
      "inputs": [
        {
          "internalType": "uint256",
          "name": "_courseFee",
          "type": "uint256"
        }
      ],
      "stateMutability": "nonpayable",
      "type": "constructor"
    },
    {
      "anonymous": false,
      "inputs": [
        {
          "indexed": true,
          "internalType": "address",
          "name": "previousOwner",
          "type": "address"
        },
        {
          "indexed": true,
          "internalType": "address",
          "name": "newOwner",
          "type": "address"
        }
      ],
      "name": "OwnershipTransferred",
      "type": "event"
    },
    {
      "anonymous": false,
      "inputs": [
        {
          "indexed": true,
          "internalType": "address",
          "name": "user",
          "type": "address"
        },
        {
          "indexed": false,
          "internalType": "string",
          "name": "email",
          "type": "string"
        },
        {
          "indexed": false,
          "internalType": "uint256",
          "name": "amount",
          "type": "uint256"
        }
      ],
      "name": "PaymentReceived",
      "type": "event"
    },
    {
      "inputs": [],
      "name": "courseFee",
      "outputs": [
        {
          "internalType": "uint256",
          "name": "",
          "type": "uint256"
        }
      ],
      "stateMutability": "view",
      "type": "function",
      "constant": true
    },
    {
      "inputs": [],
      "name": "owner",
      "outputs": [
        {
          "internalType": "address",
          "name": "",
          "type": "address"
        }
      ],
      "stateMutability": "view",
      "type": "function",
      "constant": true
    },
    {
      "inputs": [
        {
          "internalType": "uint256",
          "name": "",
          "type": "uint256"
        }
      ],
      "name": "payments",
      "outputs": [
        {
          "internalType": "address",
          "name": "user",
          "type": "address"
        },
        {
          "internalType": "string",
          "name": "email",
          "type": "string"
        },
        {
          "internalType": "uint256",
          "name": "amount",
          "type": "uint256"
        }
      ],
      "stateMutability": "view",
      "type": "function",
      "constant": true
    },
    {
      "inputs": [],
      "name": "renounceOwnership",
      "outputs": [],
      "stateMutability": "nonpayable",
      "type": "function"
    },
    {
      "inputs": [
        {
          "internalType": "address",
          "name": "newOwner",
          "type": "address"
        }
      ],
      "name": "transferOwnership",
      "outputs": [],
      "stateMutability": "nonpayable",
      "type": "function"
    },
    {
      "inputs": [
        {
          "internalType": "string",
          "name": "email",
          "type": "string"
        }
      ],
      "name": "payForCourse",
      "outputs": [],
      "stateMutability": "payable",
      "type": "function",
      "payable": true
    },
    {
      "inputs": [],
      "name": "withdrawFunds",
      "outputs": [],
      "stateMutability": "nonpayable",
      "type": "function"
    },
    {
      "inputs": [
        {
          "internalType": "address",
          "name": "userAddress",
          "type": "address"
        }
      ],
      "name": "getPaymentsByUser",
      "outputs": [
        {
          "components": [
            {
              "internalType": "address",
              "name": "user",
              "type": "address"
            },
            {
              "internalType": "string",
              "name": "email",
              "type": "string"
            },
            {
              "internalType": "uint256",
              "name": "amount",
              "type": "uint256"
            }
          ],
          "internalType": "struct CourseRegistration.Payment[]",
          "name": "",
          "type": "tuple[]"
        }
      ],
      "stateMutability": "view",
      "type": "function",
      "constant": true
    },
    {
      "inputs": [],
      "name": "getAllPayments",
      "outputs": [
        {
          "components": [
            {
              "internalType": "address",
              "name": "user",
              "type": "address"
            },
            {
              "internalType": "string",
              "name": "email",
              "type": "string"
            },
            {
              "internalType": "uint256",
              "name": "amount",
              "type": "uint256"
            }
          ],
          "internalType": "struct CourseRegistration.Payment[]",
          "name": "",
          "type": "tuple[]"
        }
      ],
      "stateMutability": "view",
      "type": "function",
      "constant": true
    }
  ],
  "bytecode": "0x60806040523480156200001157600080fd5b50604051620016063803806200160683398181016040528101906200003791906200015c565b3362000049816200005860201b60201c565b5080600181905550506200018e565b60008060009054906101000a900473ffffffffffffffffffffffffffffffffffffffff169050816000806101000a81548173ffffffffffffffffffffffffffffffffffffffff021916908373ffffffffffffffffffffffffffffffffffffffff1602179055508173ffffffffffffffffffffffffffffffffffffffff168173ffffffffffffffffffffffffffffffffffffffff167f8be0079c531659141344cd1fd0a4f28419497f9722a3daafe3b4186f6b6457e060405160405180910390a35050565b600080fd5b6000819050919050565b620001368162000121565b81146200014257600080fd5b50565b60008151905062000156816200012b565b92915050565b6000602082840312156200017557620001746200011c565b5b6000620001858482850162000145565b91505092915050565b611468806200019e6000396000f3fe6080604052600436106100865760003560e01c806387d817891161005957806387d81789146101005780638da5cb5b1461013f578063d6a7b7c41461016a578063f2fde38b146101a7578063f8defa3c146101d057610086565b806324600fc31461008b5780635ddfdb71146100a25780636e6b7984146100be578063715018a6146100e9575b600080fd5b34801561009757600080fd5b506100a06101fb565b005b6100bc60048036038101906100b79190610c08565b610253565b005b3480156100ca57600080fd5b506100d36103af565b6040516100e09190610c6a565b60405180910390f35b3480156100f557600080fd5b506100fe6103b5565b005b34801561010c57600080fd5b5061012760048036038101906101229190610cb1565b6103c9565b60405161013693929190610d9e565b60405180910390f35b34801561014b57600080fd5b506101546104ab565b6040516101619190610ddc565b60405180910390f35b34801561017657600080fd5b50610191600480360381019061018c9190610e23565b6104d4565b60405161019e9190610fca565b60405180910390f35b3480156101b357600080fd5b506101ce60048036038101906101c99190610e23565b6107ce565b005b3480156101dc57600080fd5b506101e5610821565b6040516101f29190610fca565b60405180910390f35b610203610972565b61020b6104ab565b73ffffffffffffffffffffffffffffffffffffffff166108fc479081150290604051600060405180830381858888f19350505050158015610250573d6000803e3d6000fd5b50565b6001543414610297576040517f08c379a000000000000000000000000000000000000000000000000000000000815260040161028e9061105e565b60405180910390fd5b600260405180606001604052803373ffffffffffffffffffffffffffffffffffffffff16815260200183815260200134815250908060018154018082558091505060019003906000526020600020906003020160009091909190915060008201518160000160006101000a81548173ffffffffffffffffffffffffffffffffffffffff021916908373ffffffffffffffffffffffffffffffffffffffff160217905550602082015181600101908161034f919061128a565b506040820151816002015550503373ffffffffffffffffffffffffffffffffffffffff167f2333e159bfab9e5471f0b05de3eb962fc027bedccc2b553ae9068c58cdeb0ef682346040516103a492919061135c565b60405180910390a250565b60015481565b6103bd610972565b6103c760006109b3565b565b600281815481106103d957600080fd5b90600052602060002090600302016000915090508060000160009054906101000a900473ffffffffffffffffffffffffffffffffffffffff1690806001018054610422906110ad565b80601f016020809104026020016040519081016040528092919081815260200182805461044e906110ad565b801561049b5780601f106104705761010080835404028352916020019161049b565b820191906000526020600020905b81548152906001019060200180831161047e57829003601f168201915b5050505050908060020154905083565b60008060009054906101000a900473ffffffffffffffffffffffffffffffffffffffff16905090565b60606000805b600280549050811015610581578373ffffffffffffffffffffffffffffffffffffffff16600282815481106105125761051161138c565b5b906000526020600020906003020160000160009054906101000a900473ffffffffffffffffffffffffffffffffffffffff1673ffffffffffffffffffffffffffffffffffffffff160361056e57818061056a906113ea565b9250505b8080610579906113ea565b9150506104da565b5060008167ffffffffffffffff81111561059e5761059d610add565b5b6040519080825280602002602001820160405280156105d757816020015b6105c4610a77565b8152602001906001900390816105bc5790505b5090506000805b6002805490508110156107c2578573ffffffffffffffffffffffffffffffffffffffff16600282815481106106165761061561138c565b5b906000526020600020906003020160000160009054906101000a900473ffffffffffffffffffffffffffffffffffffffff1673ffffffffffffffffffffffffffffffffffffffff16036107af57600281815481106106775761067661138c565b5b90600052602060002090600302016040518060600160405290816000820160009054906101000a900473ffffffffffffffffffffffffffffffffffffffff1673ffffffffffffffffffffffffffffffffffffffff1673ffffffffffffffffffffffffffffffffffffffff1681526020016001820180546106f6906110ad565b80601f0160208091040260200160405190810160405280929190818152602001828054610722906110ad565b801561076f5780601f106107445761010080835404028352916020019161076f565b820191906000526020600020905b81548152906001019060200180831161075257829003601f168201915b505050505081526020016002820154815250508383815181106107955761079461138c565b5b602002602001018190525081806107ab906113ea565b9250505b80806107ba906113ea565b9150506105de565b50819350505050919050565b6107d6610972565b3373ffffffffffffffffffffffffffffffffffffffff166107f56104ab565b73ffffffffffffffffffffffffffffffffffffffff161461081557600080fd5b61081e816109b3565b50565b60606002805480602002602001604051908101604052809291908181526020016000905b8282101561096957838290600052602060002090600302016040518060600160405290816000820160009054906101000a900473ffffffffffffffffffffffffffffffffffffffff1673ffffffffffffffffffffffffffffffffffffffff1673ffffffffffffffffffffffffffffffffffffffff1681526020016001820180546108ce906110ad565b80601f01602080910402602001604051908101604052809291908181526020018280546108fa906110ad565b80156109475780601f1061091c57610100808354040283529160200191610947565b820191906000526020600020905b81548152906001019060200180831161092a57829003601f168201915b5050505050815260200160028201548152505081526020019060010190610845565b50505050905090565b3373ffffffffffffffffffffffffffffffffffffffff166109916104ab565b73ffffffffffffffffffffffffffffffffffffffff16146109b157600080fd5b565b60008060009054906101000a900473ffffffffffffffffffffffffffffffffffffffff169050816000806101000a81548173ffffffffffffffffffffffffffffffffffffffff021916908373ffffffffffffffffffffffffffffffffffffffff1602179055508173ffffffffffffffffffffffffffffffffffffffff168173ffffffffffffffffffffffffffffffffffffffff167f8be0079c531659141344cd1fd0a4f28419497f9722a3daafe3b4186f6b6457e060405160405180910390a35050565b6040518060600160405280600073ffffffffffffffffffffffffffffffffffffffff16815260200160608152602001600081525090565b6000604051905090565b600080fd5b600080fd5b600080fd5b600080fd5b6000601f19601f8301169050919050565b7f4e487b7100000000000000000000000000000000000000000000000000000000600052604160045260246000fd5b610b1582610acc565b810181811067ffffffffffffffff82111715610b3457610b33610add565b5b80604052505050565b6000610b47610aae565b9050610b538282610b0c565b919050565b600067ffffffffffffffff821115610b7357610b72610add565b5b610b7c82610acc565b9050602081019050919050565b82818337600083830152505050565b6000610bab610ba684610b58565b610b3d565b905082815260208101848484011115610bc757610bc6610ac7565b5b610bd2848285610b89565b509392505050565b600082601f830112610bef57610bee610ac2565b5b8135610bff848260208601610b98565b91505092915050565b600060208284031215610c1e57610c1d610ab8565b5b600082013567ffffffffffffffff811115610c3c57610c3b610abd565b5b610c4884828501610bda565b91505092915050565b6000819050919050565b610c6481610c51565b82525050565b6000602082019050610c7f6000830184610c5b565b92915050565b610c8e81610c51565b8114610c9957600080fd5b50565b600081359050610cab81610c85565b92915050565b600060208284031215610cc757610cc6610ab8565b5b6000610cd584828501610c9c565b91505092915050565b600073ffffffffffffffffffffffffffffffffffffffff82169050919050565b6000610d0982610cde565b9050919050565b610d1981610cfe565b82525050565b600081519050919050565b600082825260208201905092915050565b60005b83811015610d59578082015181840152602081019050610d3e565b60008484015250505050565b6000610d7082610d1f565b610d7a8185610d2a565b9350610d8a818560208601610d3b565b610d9381610acc565b840191505092915050565b6000606082019050610db36000830186610d10565b8181036020830152610dc58185610d65565b9050610dd46040830184610c5b565b949350505050565b6000602082019050610df16000830184610d10565b92915050565b610e0081610cfe565b8114610e0b57600080fd5b50565b600081359050610e1d81610df7565b92915050565b600060208284031215610e3957610e38610ab8565b5b6000610e4784828501610e0e565b91505092915050565b600081519050919050565b600082825260208201905092915050565b6000819050602082019050919050565b610e8581610cfe565b82525050565b600082825260208201905092915050565b6000610ea782610d1f565b610eb18185610e8b565b9350610ec1818560208601610d3b565b610eca81610acc565b840191505092915050565b610ede81610c51565b82525050565b6000606083016000830151610efc6000860182610e7c565b5060208301518482036020860152610f148282610e9c565b9150506040830151610f296040860182610ed5565b508091505092915050565b6000610f408383610ee4565b905092915050565b6000602082019050919050565b6000610f6082610e50565b610f6a8185610e5b565b935083602082028501610f7c85610e6c565b8060005b85811015610fb85784840389528151610f998582610f34565b9450610fa483610f48565b925060208a01995050600181019050610f80565b50829750879550505050505092915050565b60006020820190508181036000830152610fe48184610f55565b905092915050565b7f5061796d656e74206d75737420626520657175616c20746f2074686520636f7560008201527f7273652066656500000000000000000000000000000000000000000000000000602082015250565b6000611048602783610d2a565b915061105382610fec565b604082019050919050565b600060208201905081810360008301526110778161103b565b9050919050565b7f4e487b7100000000000000000000000000000000000000000000000000000000600052602260045260246000fd5b600060028204905060018216806110c557607f821691505b6020821081036110d8576110d761107e565b5b50919050565b60008190508160005260206000209050919050565b60006020601f8301049050919050565b600082821b905092915050565b6000600883026111407fffffffffffffffffffffffffffffffffffffffffffffffffffffffffffffffff82611103565b61114a8683611103565b95508019841693508086168417925050509392505050565b6000819050919050565b600061118761118261117d84610c51565b611162565b610c51565b9050919050565b6000819050919050565b6111a18361116c565b6111b56111ad8261118e565b848454611110565b825550505050565b600090565b6111ca6111bd565b6111d5818484611198565b505050565b5b818110156111f9576111ee6000826111c2565b6001810190506111db565b5050565b601f82111561123e5761120f816110de565b611218846110f3565b81016020851015611227578190505b61123b611233856110f3565b8301826111da565b50505b505050565b600082821c905092915050565b600061126160001984600802611243565b1980831691505092915050565b600061127a8383611250565b9150826002028217905092915050565b61129382610d1f565b67ffffffffffffffff8111156112ac576112ab610add565b5b6112b682546110ad565b6112c18282856111fd565b600060209050601f8311600181146112f457600084156112e2578287015190505b6112ec858261126e565b865550611354565b601f198416611302866110de565b60005b8281101561132a57848901518255600182019150602085019450602081019050611305565b868310156113475784890151611343601f891682611250565b8355505b6001600288020188555050505b505050505050565b600060408201905081810360008301526113768185610d65565b90506113856020830184610c5b565b9392505050565b7f4e487b7100000000000000000000000000000000000000000000000000000000600052603260045260246000fd5b7f4e487b7100000000000000000000000000000000000000000000000000000000600052601160045260246000fd5b60006113f582610c51565b91507fffffffffffffffffffffffffffffffffffffffffffffffffffffffffffffffff8203611427576114266113bb565b5b60018201905091905056fea26469706673582212204a4d6304c392f83e60c506d075591a9dc7b55d460234f4050c33e2b85840042d64736f6c63430008110033",
  "immutableReferences": {},
  "source": "// SPDX-License-Identifier: MIT\r\npragma solidity ^0.8.0;\r\n\r\ncontract Ownable {\r\n    address private _owner;\r\n\r\n    event OwnershipTransferred(address indexed previousOwner, address indexed newOwner);\r\n\r\n    constructor(address initialOwner) {\r\n        _transferOwnership(initialOwner);\r\n    }\r\n\r\n    modifier onlyOwner() {\r\n        _checkOwner();\r\n        _;\r\n    }\r\n\r\n    function owner() public view virtual returns (address) {\r\n        return _owner;\r\n    }\r\n\r\n    function _checkOwner() internal view virtual {\r\n        require(owner() == msg.sender);\r\n    }\r\n\r\n    function renounceOwnership() public virtual onlyOwner {\r\n        _transferOwnership(address(0));\r\n    }\r\n\r\n    function transferOwnership(address newOwner) public virtual onlyOwner {\r\n        require(owner() == msg.sender);\r\n        _transferOwnership(newOwner);\r\n    }\r\n\r\n    function _transferOwnership(address newOwner) internal virtual {\r\n        address oldOwner = _owner;\r\n        _owner = newOwner;\r\n        emit OwnershipTransferred(oldOwner, newOwner);\r\n    }\r\n}\r\n\r\ncontract CourseRegistration is Ownable {\r\n    uint256 public courseFee;\r\n    Payment[] public payments;\r\n\r\n    event PaymentReceived(address indexed user, string email, uint256 amount);\r\n\r\n    struct Payment {\r\n        address user;\r\n        string email;\r\n        uint256 amount;\r\n    }\r\n\r\n    constructor(uint256 _courseFee) Ownable(msg.sender) {\r\n        courseFee = _courseFee;\r\n    }\r\n\r\n    function payForCourse(string memory email) public payable {\r\n        require(msg.value == courseFee, \"Payment must be equal to the course fee\");\r\n        payments.push(Payment(msg.sender, email, msg.value));\r\n        emit PaymentReceived(msg.sender, email, msg.value);\r\n    }\r\n\r\n    function withdrawFunds() public onlyOwner {\r\n        payable(owner()).transfer(address(this).balance);\r\n    }\r\n\r\n    function getPaymentsByUser(address userAddress) public view returns (Payment[] memory) {\r\n        uint256 count = 0;\r\n\r\n        for (uint i = 0; i < payments.length; i++) {\r\n            if (payments[i].user == userAddress) {\r\n                count++;\r\n            }\r\n        }\r\n\r\n        Payment[] memory userPayments = new Payment[](count);\r\n\r\n        uint256 index = 0;\r\n        for (uint i = 0; i < payments.length; i++) {\r\n            if (payments[i].user == userAddress) {\r\n                userPayments[index] = payments[i];\r\n                index++;\r\n            }\r\n        }\r\n\r\n        return userPayments;\r\n    }\r\n\r\n    function getAllPayments() public view returns (Payment[] memory) {\r\n        return payments;\r\n    }\r\n}\r\n",
  "sourcePath": "C:\\Users\\Dell\\OneDrive\\Desktop\\New folder (2)\\contracts\\CourseRegistration.sol",
  "compiler": {
    "name": "solc",
    "version": "0.8.17+commit.8df45f5f.Emscripten.clang"
  },
  "schemaVersion": "3.4.16",
  "updatedAt": "2024-08-08T03:21:00.494Z",
  "networkType": "ethereum",
  "devdoc": {
    "kind": "dev",
    "methods": {},
    "version": 1
  },
  "userdoc": {
    "kind": "user",
    "methods": {},
    "version": 1
  }
}